{
  "_format": "hh-sol-artifact-1",
  "contractName": "NFTMarketPlace",
  "sourceName": "contracts/NFTMarketPlace.sol",
  "abi": [
    {
      "inputs": [],
      "stateMutability": "nonpayable",
      "type": "constructor"
    },
    {
      "inputs": [
        {
          "internalType": "address",
          "name": "sender",
          "type": "address"
        },
        {
          "internalType": "uint256",
          "name": "tokenId",
          "type": "uint256"
        },
        {
          "internalType": "address",
          "name": "owner",
          "type": "address"
        }
      ],
      "name": "ERC721IncorrectOwner",
      "type": "error"
    },
    {
      "inputs": [
        {
          "internalType": "address",
          "name": "operator",
          "type": "address"
        },
        {
          "internalType": "uint256",
          "name": "tokenId",
          "type": "uint256"
        }
      ],
      "name": "ERC721InsufficientApproval",
      "type": "error"
    },
    {
      "inputs": [
        {
          "internalType": "address",
          "name": "approver",
          "type": "address"
        }
      ],
      "name": "ERC721InvalidApprover",
      "type": "error"
    },
    {
      "inputs": [
        {
          "internalType": "address",
          "name": "operator",
          "type": "address"
        }
      ],
      "name": "ERC721InvalidOperator",
      "type": "error"
    },
    {
      "inputs": [
        {
          "internalType": "address",
          "name": "owner",
          "type": "address"
        }
      ],
      "name": "ERC721InvalidOwner",
      "type": "error"
    },
    {
      "inputs": [
        {
          "internalType": "address",
          "name": "receiver",
          "type": "address"
        }
      ],
      "name": "ERC721InvalidReceiver",
      "type": "error"
    },
    {
      "inputs": [
        {
          "internalType": "address",
          "name": "sender",
          "type": "address"
        }
      ],
      "name": "ERC721InvalidSender",
      "type": "error"
    },
    {
      "inputs": [
        {
          "internalType": "uint256",
          "name": "tokenId",
          "type": "uint256"
        }
      ],
      "name": "ERC721NonexistentToken",
      "type": "error"
    },
    {
      "anonymous": false,
      "inputs": [
        {
          "indexed": true,
          "internalType": "address",
          "name": "owner",
          "type": "address"
        },
        {
          "indexed": true,
          "internalType": "address",
          "name": "approved",
          "type": "address"
        },
        {
          "indexed": true,
          "internalType": "uint256",
          "name": "tokenId",
          "type": "uint256"
        }
      ],
      "name": "Approval",
      "type": "event"
    },
    {
      "anonymous": false,
      "inputs": [
        {
          "indexed": true,
          "internalType": "address",
          "name": "owner",
          "type": "address"
        },
        {
          "indexed": true,
          "internalType": "address",
          "name": "operator",
          "type": "address"
        },
        {
          "indexed": false,
          "internalType": "bool",
          "name": "approved",
          "type": "bool"
        }
      ],
      "name": "ApprovalForAll",
      "type": "event"
    },
    {
      "anonymous": false,
      "inputs": [
        {
          "indexed": false,
          "internalType": "uint256",
          "name": "_fromTokenId",
          "type": "uint256"
        },
        {
          "indexed": false,
          "internalType": "uint256",
          "name": "_toTokenId",
          "type": "uint256"
        }
      ],
      "name": "BatchMetadataUpdate",
      "type": "event"
    },
    {
      "anonymous": false,
      "inputs": [
        {
          "indexed": true,
          "internalType": "uint256",
          "name": "tokenId",
          "type": "uint256"
        },
        {
          "indexed": false,
          "internalType": "address",
          "name": "seller",
          "type": "address"
        },
        {
          "indexed": false,
          "internalType": "address",
          "name": "owner",
          "type": "address"
        },
        {
          "indexed": false,
          "internalType": "uint256",
          "name": "price",
          "type": "uint256"
        },
        {
          "indexed": false,
          "internalType": "bool",
          "name": "sold",
          "type": "bool"
        },
        {
          "indexed": false,
          "internalType": "enum NFTMarketPlace.NFTCategory",
          "name": "category",
          "type": "uint8"
        }
      ],
      "name": "MarketItemCreated",
      "type": "event"
    },
    {
      "anonymous": false,
      "inputs": [
        {
          "indexed": false,
          "internalType": "uint256",
          "name": "_tokenId",
          "type": "uint256"
        }
      ],
      "name": "MetadataUpdate",
      "type": "event"
    },
    {
      "anonymous": false,
      "inputs": [
        {
          "indexed": true,
          "internalType": "uint256",
          "name": "tokenId",
          "type": "uint256"
        },
        {
          "indexed": false,
          "internalType": "address",
          "name": "liker",
          "type": "address"
        },
        {
          "indexed": false,
          "internalType": "uint256",
          "name": "newLikeCount",
          "type": "uint256"
        }
      ],
      "name": "NFTLiked",
      "type": "event"
    },
    {
      "anonymous": false,
      "inputs": [
        {
          "indexed": true,
          "internalType": "address",
          "name": "from",
          "type": "address"
        },
        {
          "indexed": true,
          "internalType": "address",
          "name": "to",
          "type": "address"
        },
        {
          "indexed": true,
          "internalType": "uint256",
          "name": "tokenId",
          "type": "uint256"
        }
      ],
      "name": "Transfer",
      "type": "event"
    },
    {
      "inputs": [
        {
          "internalType": "uint256",
          "name": "",
          "type": "uint256"
        }
      ],
      "name": "NFTLikes",
      "outputs": [
        {
          "internalType": "uint256",
          "name": "",
          "type": "uint256"
        }
      ],
      "stateMutability": "view",
      "type": "function"
    },
    {
      "inputs": [
        {
          "internalType": "address",
          "name": "to",
          "type": "address"
        },
        {
          "internalType": "uint256",
          "name": "tokenId",
          "type": "uint256"
        }
      ],
      "name": "approve",
      "outputs": [],
      "stateMutability": "nonpayable",
      "type": "function"
    },
    {
      "inputs": [
        {
          "internalType": "address",
          "name": "owner",
          "type": "address"
        }
      ],
      "name": "balanceOf",
      "outputs": [
        {
          "internalType": "uint256",
          "name": "",
          "type": "uint256"
        }
      ],
      "stateMutability": "view",
      "type": "function"
    },
    {
      "inputs": [
        {
          "internalType": "uint256",
          "name": "tokenId",
          "type": "uint256"
        }
      ],
      "name": "createMarketSale",
      "outputs": [],
      "stateMutability": "payable",
      "type": "function"
    },
    {
      "inputs": [
        {
          "internalType": "string",
          "name": "tokenURI",
          "type": "string"
        },
        {
          "internalType": "uint256",
          "name": "price",
          "type": "uint256"
        },
        {
          "internalType": "enum NFTMarketPlace.NFTCategory",
          "name": "category",
          "type": "uint8"
        }
      ],
      "name": "createToken",
      "outputs": [
        {
          "internalType": "uint256",
          "name": "",
          "type": "uint256"
        }
      ],
      "stateMutability": "payable",
      "type": "function"
    },
    {
      "inputs": [],
      "name": "fetchMarketItems",
      "outputs": [
        {
          "components": [
            {
              "internalType": "uint256",
              "name": "tokenId",
              "type": "uint256"
            },
            {
              "internalType": "address payable",
              "name": "seller",
              "type": "address"
            },
            {
              "internalType": "address payable",
              "name": "owner",
              "type": "address"
            },
            {
              "internalType": "uint256",
              "name": "price",
              "type": "uint256"
            },
            {
              "internalType": "bool",
              "name": "sold",
              "type": "bool"
            },
            {
              "internalType": "enum NFTMarketPlace.NFTCategory",
              "name": "category",
              "type": "uint8"
            }
          ],
          "internalType": "struct NFTMarketPlace.MarketItem[]",
          "name": "",
          "type": "tuple[]"
        }
      ],
      "stateMutability": "view",
      "type": "function"
    },
    {
      "inputs": [
        {
          "internalType": "enum NFTMarketPlace.NFTCategory",
          "name": "category",
          "type": "uint8"
        }
      ],
      "name": "fetchMarketItems",
      "outputs": [
        {
          "components": [
            {
              "internalType": "uint256",
              "name": "tokenId",
              "type": "uint256"
            },
            {
              "internalType": "address payable",
              "name": "seller",
              "type": "address"
            },
            {
              "internalType": "address payable",
              "name": "owner",
              "type": "address"
            },
            {
              "internalType": "uint256",
              "name": "price",
              "type": "uint256"
            },
            {
              "internalType": "bool",
              "name": "sold",
              "type": "bool"
            },
            {
              "internalType": "enum NFTMarketPlace.NFTCategory",
              "name": "category",
              "type": "uint8"
            }
          ],
          "internalType": "struct NFTMarketPlace.MarketItem[]",
          "name": "",
          "type": "tuple[]"
        }
      ],
      "stateMutability": "view",
      "type": "function"
    },
    {
      "inputs": [],
      "name": "fetchMyNFTs",
      "outputs": [
        {
          "components": [
            {
              "internalType": "uint256",
              "name": "tokenId",
              "type": "uint256"
            },
            {
              "internalType": "address payable",
              "name": "seller",
              "type": "address"
            },
            {
              "internalType": "address payable",
              "name": "owner",
              "type": "address"
            },
            {
              "internalType": "uint256",
              "name": "price",
              "type": "uint256"
            },
            {
              "internalType": "bool",
              "name": "sold",
              "type": "bool"
            },
            {
              "internalType": "enum NFTMarketPlace.NFTCategory",
              "name": "category",
              "type": "uint8"
            }
          ],
          "internalType": "struct NFTMarketPlace.MarketItem[]",
          "name": "",
          "type": "tuple[]"
        }
      ],
      "stateMutability": "view",
      "type": "function"
    },
    {
      "inputs": [
        {
          "internalType": "enum NFTMarketPlace.NFTCategory",
          "name": "category",
          "type": "uint8"
        }
      ],
      "name": "fetchNFTsByCategory",
      "outputs": [
        {
          "components": [
            {
              "internalType": "uint256",
              "name": "tokenId",
              "type": "uint256"
            },
            {
              "internalType": "address payable",
              "name": "seller",
              "type": "address"
            },
            {
              "internalType": "address payable",
              "name": "owner",
              "type": "address"
            },
            {
              "internalType": "uint256",
              "name": "price",
              "type": "uint256"
            },
            {
              "internalType": "bool",
              "name": "sold",
              "type": "bool"
            },
            {
              "internalType": "enum NFTMarketPlace.NFTCategory",
              "name": "category",
              "type": "uint8"
            }
          ],
          "internalType": "struct NFTMarketPlace.MarketItem[]",
          "name": "",
          "type": "tuple[]"
        }
      ],
      "stateMutability": "view",
      "type": "function"
    },
    {
      "inputs": [
        {
          "internalType": "uint256",
          "name": "tokenId",
          "type": "uint256"
        }
      ],
      "name": "getApproved",
      "outputs": [
        {
          "internalType": "address",
          "name": "",
          "type": "address"
        }
      ],
      "stateMutability": "view",
      "type": "function"
    },
    {
      "inputs": [],
      "name": "getListingPrice",
      "outputs": [
        {
          "internalType": "uint256",
          "name": "",
          "type": "uint256"
        }
      ],
      "stateMutability": "view",
      "type": "function"
    },
    {
      "inputs": [
        {
          "internalType": "uint256",
          "name": "tokenId",
          "type": "uint256"
        }
      ],
      "name": "getNFTLikes",
      "outputs": [
        {
          "internalType": "uint256",
          "name": "",
          "type": "uint256"
        }
      ],
      "stateMutability": "view",
      "type": "function"
    },
    {
      "inputs": [
        {
          "internalType": "address",
          "name": "owner",
          "type": "address"
        },
        {
          "internalType": "address",
          "name": "operator",
          "type": "address"
        }
      ],
      "name": "isApprovedForAll",
      "outputs": [
        {
          "internalType": "bool",
          "name": "",
          "type": "bool"
        }
      ],
      "stateMutability": "view",
      "type": "function"
    },
    {
      "inputs": [
        {
          "internalType": "uint256",
          "name": "tokenId",
          "type": "uint256"
        }
      ],
      "name": "likeNFT",
      "outputs": [],
      "stateMutability": "nonpayable",
      "type": "function"
    },
    {
      "inputs": [],
      "name": "name",
      "outputs": [
        {
          "internalType": "string",
          "name": "",
          "type": "string"
        }
      ],
      "stateMutability": "view",
      "type": "function"
    },
    {
      "inputs": [
        {
          "internalType": "uint256",
          "name": "tokenId",
          "type": "uint256"
        }
      ],
      "name": "ownerOf",
      "outputs": [
        {
          "internalType": "address",
          "name": "",
          "type": "address"
        }
      ],
      "stateMutability": "view",
      "type": "function"
    },
    {
      "inputs": [
        {
          "internalType": "uint256",
          "name": "tokenId",
          "type": "uint256"
        },
        {
          "internalType": "uint256",
          "name": "price",
          "type": "uint256"
        }
      ],
      "name": "resell",
      "outputs": [],
      "stateMutability": "payable",
      "type": "function"
    },
    {
      "inputs": [
        {
          "internalType": "address",
          "name": "from",
          "type": "address"
        },
        {
          "internalType": "address",
          "name": "to",
          "type": "address"
        },
        {
          "internalType": "uint256",
          "name": "tokenId",
          "type": "uint256"
        }
      ],
      "name": "safeTransferFrom",
      "outputs": [],
      "stateMutability": "nonpayable",
      "type": "function"
    },
    {
      "inputs": [
        {
          "internalType": "address",
          "name": "from",
          "type": "address"
        },
        {
          "internalType": "address",
          "name": "to",
          "type": "address"
        },
        {
          "internalType": "uint256",
          "name": "tokenId",
          "type": "uint256"
        },
        {
          "internalType": "bytes",
          "name": "data",
          "type": "bytes"
        }
      ],
      "name": "safeTransferFrom",
      "outputs": [],
      "stateMutability": "nonpayable",
      "type": "function"
    },
    {
      "inputs": [
        {
          "internalType": "address",
          "name": "operator",
          "type": "address"
        },
        {
          "internalType": "bool",
          "name": "approved",
          "type": "bool"
        }
      ],
      "name": "setApprovalForAll",
      "outputs": [],
      "stateMutability": "nonpayable",
      "type": "function"
    },
    {
      "inputs": [
        {
          "internalType": "bytes4",
          "name": "interfaceId",
          "type": "bytes4"
        }
      ],
      "name": "supportsInterface",
      "outputs": [
        {
          "internalType": "bool",
          "name": "",
          "type": "bool"
        }
      ],
      "stateMutability": "view",
      "type": "function"
    },
    {
      "inputs": [],
      "name": "symbol",
      "outputs": [
        {
          "internalType": "string",
          "name": "",
          "type": "string"
        }
      ],
      "stateMutability": "view",
      "type": "function"
    },
    {
      "inputs": [
        {
          "internalType": "uint256",
          "name": "tokenId",
          "type": "uint256"
        }
      ],
      "name": "tokenURI",
      "outputs": [
        {
          "internalType": "string",
          "name": "",
          "type": "string"
        }
      ],
      "stateMutability": "view",
      "type": "function"
    },
    {
      "inputs": [
        {
          "internalType": "address",
          "name": "from",
          "type": "address"
        },
        {
          "internalType": "address",
          "name": "to",
          "type": "address"
        },
        {
          "internalType": "uint256",
          "name": "tokenId",
          "type": "uint256"
        }
      ],
      "name": "transferFrom",
      "outputs": [],
      "stateMutability": "nonpayable",
      "type": "function"
    },
    {
      "inputs": [
        {
          "internalType": "uint256",
          "name": "newlistingPrice",
          "type": "uint256"
        }
      ],
      "name": "updateListingPrice",
      "outputs": [],
      "stateMutability": "payable",
      "type": "function"
    }
  ],
  "bytecode": "0x60806040526509184e72a000600a5564174876e800600b5534801561002357600080fd5b506040518060400160405280601381526020017f4e4654204d657461766572736520546f6b656e000000000000000000000000008152506040518060400160405280600581526020017f4d594e4654000000000000000000000000000000000000000000000000000000815250816000908161009f9190610348565b5080600190816100af9190610348565b50505033600960006101000a81548173ffffffffffffffffffffffffffffffffffffffff021916908373ffffffffffffffffffffffffffffffffffffffff16021790555061041a565b600081519050919050565b7f4e487b7100000000000000000000000000000000000000000000000000000000600052604160045260246000fd5b7f4e487b7100000000000000000000000000000000000000000000000000000000600052602260045260246000fd5b6000600282049050600182168061017957607f821691505b60208210810361018c5761018b610132565b5b50919050565b60008190508160005260206000209050919050565b60006020601f8301049050919050565b600082821b905092915050565b6000600883026101f47fffffffffffffffffffffffffffffffffffffffffffffffffffffffffffffffff826101b7565b6101fe86836101b7565b95508019841693508086168417925050509392505050565b6000819050919050565b6000819050919050565b600061024561024061023b84610216565b610220565b610216565b9050919050565b6000819050919050565b61025f8361022a565b61027361026b8261024c565b8484546101c4565b825550505050565b600090565b61028861027b565b610293818484610256565b505050565b5b818110156102b7576102ac600082610280565b600181019050610299565b5050565b601f8211156102fc576102cd81610192565b6102d6846101a7565b810160208510156102e5578190505b6102f96102f1856101a7565b830182610298565b50505b505050565b600082821c905092915050565b600061031f60001984600802610301565b1980831691505092915050565b6000610338838361030e565b9150826002028217905092915050565b610351826100f8565b67ffffffffffffffff81111561036a57610369610103565b5b6103748254610161565b61037f8282856102bb565b600060209050601f8311600181146103b257600084156103a0578287015190505b6103aa858261032c565b865550610412565b601f1984166103c086610192565b60005b828110156103e8578489015182556001820191506020850194506020810190506103c3565b868310156104055784890151610401601f89168261030e565b8355505b6001600288020188555050505b505050505050565b6147ea806104296000396000f3fe6080604052600436106101665760003560e01c80636352211e116100d1578063a22cb4651161008a578063be9af53611610064578063be9af5361461055f578063c87b56dd1461057b578063da472a0f146105b8578063e985e9c5146105e157610166565b8063a22cb465146104f1578063ae677aa31461051a578063b88d4fde1461053657610166565b80636352211e146103a257806370a08231146103df57806378f225e51461041c5780638fad3e541461044c5780639453b7b51461048957806395d89b41146104c657610166565b806315f714e81161012357806315f714e81461028f578063202e3740146102cc57806323b872dd146102f757806328cfac8a14610320578063401d0e5a1461033c57806342842e0e1461037957610166565b806301ffc9a71461016b57806306fdde03146101a8578063081812fc146101d3578063095ea7b3146102105780630f08efe01461023957806312e8558514610264575b600080fd5b34801561017757600080fd5b50610192600480360381019061018d9190613481565b61061e565b60405161019f91906134c9565b60405180910390f35b3480156101b457600080fd5b506101bd61067f565b6040516101ca9190613574565b60405180910390f35b3480156101df57600080fd5b506101fa60048036038101906101f591906135cc565b610711565b604051610207919061363a565b60405180910390f35b34801561021c57600080fd5b5061023760048036038101906102329190613681565b61072d565b005b34801561024557600080fd5b5061024e610743565b60405161025b91906138a1565b60405180910390f35b34801561027057600080fd5b506102796109cb565b60405161028691906138d2565b60405180910390f35b34801561029b57600080fd5b506102b660048036038101906102b19190613912565b6109d5565b6040516102c391906138a1565b60405180910390f35b3480156102d857600080fd5b506102e1610da9565b6040516102ee91906138a1565b60405180910390f35b34801561030357600080fd5b5061031e6004803603810190610319919061393f565b6110bd565b005b61033a60048036038101906103359190613992565b6111bf565b005b34801561034857600080fd5b50610363600480360381019061035e91906135cc565b611489565b60405161037091906138d2565b60405180910390f35b34801561038557600080fd5b506103a0600480360381019061039b919061393f565b6114a6565b005b3480156103ae57600080fd5b506103c960048036038101906103c491906135cc565b6114c6565b6040516103d6919061363a565b60405180910390f35b3480156103eb57600080fd5b50610406600480360381019061040191906139d2565b6114d8565b60405161041391906138d2565b60405180910390f35b61043660048036038101906104319190613b34565b611592565b60405161044391906138d2565b60405180910390f35b34801561045857600080fd5b50610473600480360381019061046e9190613912565b6116e6565b60405161048091906138a1565b60405180910390f35b34801561049557600080fd5b506104b060048036038101906104ab91906135cc565b611ab1565b6040516104bd91906138d2565b60405180910390f35b3480156104d257600080fd5b506104db611ac9565b6040516104e89190613574565b60405180910390f35b3480156104fd57600080fd5b5061051860048036038101906105139190613bcf565b611b5b565b005b610534600480360381019061052f91906135cc565b611b71565b005b34801561054257600080fd5b5061055d60048036038101906105589190613cb0565b611c0b565b005b610579600480360381019061057491906135cc565b611c30565b005b34801561058757600080fd5b506105a2600480360381019061059d91906135cc565b611e87565b6040516105af9190613574565b60405180910390f35b3480156105c457600080fd5b506105df60048036038101906105da91906135cc565b611f9a565b005b3480156105ed57600080fd5b5061060860048036038101906106039190613d33565b61206e565b60405161061591906134c9565b60405180910390f35b6000634906490660e01b7bffffffffffffffffffffffffffffffffffffffffffffffffffffffff1916827bffffffffffffffffffffffffffffffffffffffffffffffffffffffff19161480610678575061067782612102565b5b9050919050565b60606000805461068e90613da2565b80601f01602080910402602001604051908101604052809291908181526020018280546106ba90613da2565b80156107075780601f106106dc57610100808354040283529160200191610707565b820191906000526020600020905b8154815290600101906020018083116106ea57829003601f168201915b5050505050905090565b600061071c826121e4565b506107268261226c565b9050919050565b61073f828261073a6122a9565b6122b1565b5050565b606060006007549050600060085460075461075e9190613e02565b90506000808267ffffffffffffffff81111561077d5761077c613a09565b5b6040519080825280602002602001820160405280156107b657816020015b6107a361339f565b81526020019060019003908161079b5790505b50905060005b848110156109c0573073ffffffffffffffffffffffffffffffffffffffff16600c60006001846107ec9190613e36565b815260200190815260200160002060020160009054906101000a900473ffffffffffffffffffffffffffffffffffffffff1673ffffffffffffffffffffffffffffffffffffffff16036109b35760006001826108489190613e36565b90506000600c60008381526020019081526020016000209050806040518060c0016040529081600082015481526020016001820160009054906101000a900473ffffffffffffffffffffffffffffffffffffffff1673ffffffffffffffffffffffffffffffffffffffff1673ffffffffffffffffffffffffffffffffffffffff1681526020016002820160009054906101000a900473ffffffffffffffffffffffffffffffffffffffff1673ffffffffffffffffffffffffffffffffffffffff1673ffffffffffffffffffffffffffffffffffffffff168152602001600382015481526020016004820160009054906101000a900460ff161515151581526020016004820160019054906101000a900460ff16600281111561096d5761096c61372c565b5b600281111561097f5761097e61372c565b5b8152505084868151811061099657610995613e6a565b5b60200260200101819052506001856109ae9190613e36565b945050505b80806001019150506107bc565b508094505050505090565b6000600a54905090565b60606000600754905060008060005b83811015610add578560028111156109ff576109fe61372c565b5b600c6000600184610a109190613e36565b815260200190815260200160002060040160019054906101000a900460ff166002811115610a4157610a4061372c565b5b148015610abb57503373ffffffffffffffffffffffffffffffffffffffff16600c6000600184610a719190613e36565b815260200190815260200160002060020160009054906101000a900473ffffffffffffffffffffffffffffffffffffffff1673ffffffffffffffffffffffffffffffffffffffff16145b15610ad057600183610acd9190613e36565b92505b80806001019150506109e4565b5060008267ffffffffffffffff811115610afa57610af9613a09565b5b604051908082528060200260200182016040528015610b3357816020015b610b2061339f565b815260200190600190039081610b185790505b50905060005b84811015610d9c57866002811115610b5457610b5361372c565b5b600c6000600184610b659190613e36565b815260200190815260200160002060040160019054906101000a900460ff166002811115610b9657610b9561372c565b5b148015610c1057503373ffffffffffffffffffffffffffffffffffffffff16600c6000600184610bc69190613e36565b815260200190815260200160002060020160009054906101000a900473ffffffffffffffffffffffffffffffffffffffff1673ffffffffffffffffffffffffffffffffffffffff16145b15610d8f576000600182610c249190613e36565b90506000600c60008381526020019081526020016000209050806040518060c0016040529081600082015481526020016001820160009054906101000a900473ffffffffffffffffffffffffffffffffffffffff1673ffffffffffffffffffffffffffffffffffffffff1673ffffffffffffffffffffffffffffffffffffffff1681526020016002820160009054906101000a900473ffffffffffffffffffffffffffffffffffffffff1673ffffffffffffffffffffffffffffffffffffffff1673ffffffffffffffffffffffffffffffffffffffff168152602001600382015481526020016004820160009054906101000a900460ff161515151581526020016004820160019054906101000a900460ff166002811115610d4957610d4861372c565b5b6002811115610d5b57610d5a61372c565b5b81525050848681518110610d7257610d71613e6a565b5b6020026020010181905250600185610d8a9190613e36565b945050505b8080600101915050610b39565b5080945050505050919050565b60606000600754905060008060005b83811015610e52573373ffffffffffffffffffffffffffffffffffffffff16600c6000600184610de89190613e36565b815260200190815260200160002060020160009054906101000a900473ffffffffffffffffffffffffffffffffffffffff1673ffffffffffffffffffffffffffffffffffffffff1603610e4557600183610e429190613e36565b92505b8080600101915050610db8565b5060008267ffffffffffffffff811115610e6f57610e6e613a09565b5b604051908082528060200260200182016040528015610ea857816020015b610e9561339f565b815260200190600190039081610e8d5790505b50905060005b848110156110b2573373ffffffffffffffffffffffffffffffffffffffff16600c6000600184610ede9190613e36565b815260200190815260200160002060020160009054906101000a900473ffffffffffffffffffffffffffffffffffffffff1673ffffffffffffffffffffffffffffffffffffffff16036110a5576000600182610f3a9190613e36565b90506000600c60008381526020019081526020016000209050806040518060c0016040529081600082015481526020016001820160009054906101000a900473ffffffffffffffffffffffffffffffffffffffff1673ffffffffffffffffffffffffffffffffffffffff1673ffffffffffffffffffffffffffffffffffffffff1681526020016002820160009054906101000a900473ffffffffffffffffffffffffffffffffffffffff1673ffffffffffffffffffffffffffffffffffffffff1673ffffffffffffffffffffffffffffffffffffffff168152602001600382015481526020016004820160009054906101000a900460ff161515151581526020016004820160019054906101000a900460ff16600281111561105f5761105e61372c565b5b60028111156110715761107061372c565b5b8152505084868151811061108857611087613e6a565b5b60200260200101819052506001856110a09190613e36565b945050505b8080600101915050610eae565b508094505050505090565b600073ffffffffffffffffffffffffffffffffffffffff168273ffffffffffffffffffffffffffffffffffffffff160361112f5760006040517f64a0ae92000000000000000000000000000000000000000000000000000000008152600401611126919061363a565b60405180910390fd5b6000611143838361113e6122a9565b6122c3565b90508373ffffffffffffffffffffffffffffffffffffffff168173ffffffffffffffffffffffffffffffffffffffff16146111b9578382826040517f64283d7b0000000000000000000000000000000000000000000000000000000081526004016111b093929190613e99565b60405180910390fd5b50505050565b3373ffffffffffffffffffffffffffffffffffffffff16600c600084815260200190815260200160002060020160009054906101000a900473ffffffffffffffffffffffffffffffffffffffff1673ffffffffffffffffffffffffffffffffffffffff1614611263576040517f08c379a000000000000000000000000000000000000000000000000000000000815260040161125a90613f42565b60405180910390fd5b600a5434146112a7576040517f08c379a000000000000000000000000000000000000000000000000000000000815260040161129e90613fd4565b60405180910390fd5b600a543373ffffffffffffffffffffffffffffffffffffffff16311015611303576040517f08c379a00000000000000000000000000000000000000000000000000000000081526004016112fa90614040565b60405180910390fd5b80600c6000848152602001908152602001600020600301819055506000600c600084815260200190815260200160002060040160006101000a81548160ff02191690831515021790555033600c600084815260200190815260200160002060010160006101000a81548173ffffffffffffffffffffffffffffffffffffffff021916908373ffffffffffffffffffffffffffffffffffffffff16021790555030600c600084815260200190815260200160002060020160006101000a81548173ffffffffffffffffffffffffffffffffffffffff021916908373ffffffffffffffffffffffffffffffffffffffff160217905550600960009054906101000a900473ffffffffffffffffffffffffffffffffffffffff1673ffffffffffffffffffffffffffffffffffffffff166108fc600a549081150290604051600060405180830381858888f19350505050158015611461573d6000803e3d6000fd5b506008600081548092919061147590614060565b91905055506114853330846124dd565b5050565b6000600d6000838152602001908152602001600020549050919050565b6114c183838360405180602001604052806000815250611c0b565b505050565b60006114d1826121e4565b9050919050565b60008073ffffffffffffffffffffffffffffffffffffffff168273ffffffffffffffffffffffffffffffffffffffff160361154b5760006040517f89c62b64000000000000000000000000000000000000000000000000000000008152600401611542919061363a565b60405180910390fd5b600360008373ffffffffffffffffffffffffffffffffffffffff1673ffffffffffffffffffffffffffffffffffffffff168152602001908152602001600020549050919050565b6000600b543373ffffffffffffffffffffffffffffffffffffffff163110156115f0576040517f08c379a00000000000000000000000000000000000000000000000000000000081526004016115e790614040565b60405180910390fd5b600b543414611634576040517f08c379a000000000000000000000000000000000000000000000000000000000815260040161162b906140d5565b60405180910390fd5b60076000815480929190611647906140f5565b91905055506000600754905061165d338261264a565b6116678186612743565b61167281858561279f565b600960009054906101000a900473ffffffffffffffffffffffffffffffffffffffff1673ffffffffffffffffffffffffffffffffffffffff166108fc349081150290604051600060405180830381858888f193505050501580156116da573d6000803e3d6000fd5b50809150509392505050565b6060600060075490506000805b828110156117eb573073ffffffffffffffffffffffffffffffffffffffff16600c60006001846117239190613e36565b815260200190815260200160002060020160009054906101000a900473ffffffffffffffffffffffffffffffffffffffff1673ffffffffffffffffffffffffffffffffffffffff161480156117ca57508460028111156117865761178561372c565b5b600c60006001846117979190613e36565b815260200190815260200160002060040160019054906101000a900460ff1660028111156117c8576117c761372c565b5b145b156117de5781806117da906140f5565b9250505b80806001019150506116f3565b506000808267ffffffffffffffff81111561180957611808613a09565b5b60405190808252806020026020018201604052801561184257816020015b61182f61339f565b8152602001906001900390816118275790505b50905060005b84811015611aa4573073ffffffffffffffffffffffffffffffffffffffff16600c60006001846118789190613e36565b815260200190815260200160002060020160009054906101000a900473ffffffffffffffffffffffffffffffffffffffff1673ffffffffffffffffffffffffffffffffffffffff1614801561191f57508660028111156118db576118da61372c565b5b600c60006001846118ec9190613e36565b815260200190815260200160002060040160019054906101000a900460ff16600281111561191d5761191c61372c565b5b145b15611a975760006001826119339190613e36565b9050600c60008281526020019081526020016000206040518060c0016040529081600082015481526020016001820160009054906101000a900473ffffffffffffffffffffffffffffffffffffffff1673ffffffffffffffffffffffffffffffffffffffff1673ffffffffffffffffffffffffffffffffffffffff1681526020016002820160009054906101000a900473ffffffffffffffffffffffffffffffffffffffff1673ffffffffffffffffffffffffffffffffffffffff1673ffffffffffffffffffffffffffffffffffffffff168152602001600382015481526020016004820160009054906101000a900460ff161515151581526020016004820160019054906101000a900460ff166002811115611a5357611a5261372c565b5b6002811115611a6557611a6461372c565b5b81525050838581518110611a7c57611a7b613e6a565b5b60200260200101819052508380611a92906140f5565b945050505b8080600101915050611848565b5080945050505050919050565b600d6020528060005260406000206000915090505481565b606060018054611ad890613da2565b80601f0160208091040260200160405190810160405280929190818152602001828054611b0490613da2565b8015611b515780601f10611b2657610100808354040283529160200191611b51565b820191906000526020600020905b815481529060010190602001808311611b3457829003601f168201915b5050505050905090565b611b6d611b666122a9565b83836129ed565b5050565b600960009054906101000a900473ffffffffffffffffffffffffffffffffffffffff1673ffffffffffffffffffffffffffffffffffffffff163373ffffffffffffffffffffffffffffffffffffffff1614611c01576040517f08c379a0000000000000000000000000000000000000000000000000000000008152600401611bf8906141af565b60405180910390fd5b80600a8190555050565b611c168484846110bd565b611c2a611c216122a9565b85858585612b5c565b50505050565b6000600c6000838152602001908152602001600020600301549050803414611c8d576040517f08c379a0000000000000000000000000000000000000000000000000000000008152600401611c8490614241565b60405180910390fd5b600a5481611c9b9190613e36565b3373ffffffffffffffffffffffffffffffffffffffff16311015611cf4576040517f08c379a0000000000000000000000000000000000000000000000000000000008152600401611ceb90614040565b60405180910390fd5b33600c600084815260200190815260200160002060020160006101000a81548173ffffffffffffffffffffffffffffffffffffffff021916908373ffffffffffffffffffffffffffffffffffffffff1602179055506001600c600084815260200190815260200160002060040160006101000a81548160ff02191690831515021790555060086000815480929190611d8b906140f5565b9190505550611d9b3033846124dd565b600960009054906101000a900473ffffffffffffffffffffffffffffffffffffffff1673ffffffffffffffffffffffffffffffffffffffff166108fc600a549081150290604051600060405180830381858888f19350505050158015611e05573d6000803e3d6000fd5b50600c600083815260200190815260200160002060010160009054906101000a900473ffffffffffffffffffffffffffffffffffffffff1673ffffffffffffffffffffffffffffffffffffffff166108fc829081150290604051600060405180830381858888f19350505050158015611e82573d6000803e3d6000fd5b505050565b6060611e92826121e4565b506000600660008481526020019081526020016000208054611eb390613da2565b80601f0160208091040260200160405190810160405280929190818152602001828054611edf90613da2565b8015611f2c5780601f10611f0157610100808354040283529160200191611f2c565b820191906000526020600020905b815481529060010190602001808311611f0f57829003601f168201915b505050505090506000611f3d612d0d565b90506000815103611f52578192505050611f95565b600082511115611f87578082604051602001611f6f92919061429d565b60405160208183030381529060405292505050611f95565b611f9084612d24565b925050505b919050565b6000600c60008381526020019081526020016000206000015403611ff3576040517f08c379a0000000000000000000000000000000000000000000000000000000008152600401611fea9061430d565b60405180910390fd5b6001600d600083815260200190815260200160002060008282546120179190613e36565b92505081905550807f1d47eaf7725d80821a04ffda9af45be7be1f39ed5ae6e6d309853e01fd95dc3e33600d60008581526020019081526020016000205460405161206392919061432d565b60405180910390a250565b6000600560008473ffffffffffffffffffffffffffffffffffffffff1673ffffffffffffffffffffffffffffffffffffffff16815260200190815260200160002060008373ffffffffffffffffffffffffffffffffffffffff1673ffffffffffffffffffffffffffffffffffffffff16815260200190815260200160002060009054906101000a900460ff16905092915050565b60007f80ac58cd000000000000000000000000000000000000000000000000000000007bffffffffffffffffffffffffffffffffffffffffffffffffffffffff1916827bffffffffffffffffffffffffffffffffffffffffffffffffffffffff191614806121cd57507f5b5e139f000000000000000000000000000000000000000000000000000000007bffffffffffffffffffffffffffffffffffffffffffffffffffffffff1916827bffffffffffffffffffffffffffffffffffffffffffffffffffffffff1916145b806121dd57506121dc82612d8d565b5b9050919050565b6000806121f083612df7565b9050600073ffffffffffffffffffffffffffffffffffffffff168173ffffffffffffffffffffffffffffffffffffffff160361226357826040517f7e27328900000000000000000000000000000000000000000000000000000000815260040161225a91906138d2565b60405180910390fd5b80915050919050565b60006004600083815260200190815260200160002060009054906101000a900473ffffffffffffffffffffffffffffffffffffffff169050919050565b600033905090565b6122be8383836001612e34565b505050565b6000806122cf84612df7565b9050600073ffffffffffffffffffffffffffffffffffffffff168373ffffffffffffffffffffffffffffffffffffffff161461231157612310818486612ff9565b5b600073ffffffffffffffffffffffffffffffffffffffff168173ffffffffffffffffffffffffffffffffffffffff16146123a257612353600085600080612e34565b6001600360008373ffffffffffffffffffffffffffffffffffffffff1673ffffffffffffffffffffffffffffffffffffffff168152602001908152602001600020600082825403925050819055505b600073ffffffffffffffffffffffffffffffffffffffff168573ffffffffffffffffffffffffffffffffffffffff1614612425576001600360008773ffffffffffffffffffffffffffffffffffffffff1673ffffffffffffffffffffffffffffffffffffffff168152602001908152602001600020600082825401925050819055505b846002600086815260200190815260200160002060006101000a81548173ffffffffffffffffffffffffffffffffffffffff021916908373ffffffffffffffffffffffffffffffffffffffff160217905550838573ffffffffffffffffffffffffffffffffffffffff168273ffffffffffffffffffffffffffffffffffffffff167fddf252ad1be2c89b69c2b068fc378daa952ba7f163c4a11628f55a4df523b3ef60405160405180910390a4809150509392505050565b600073ffffffffffffffffffffffffffffffffffffffff168273ffffffffffffffffffffffffffffffffffffffff160361254f5760006040517f64a0ae92000000000000000000000000000000000000000000000000000000008152600401612546919061363a565b60405180910390fd5b600061255d838360006122c3565b9050600073ffffffffffffffffffffffffffffffffffffffff168173ffffffffffffffffffffffffffffffffffffffff16036125d057816040517f7e2732890000000000000000000000000000000000000000000000000000000081526004016125c791906138d2565b60405180910390fd5b8373ffffffffffffffffffffffffffffffffffffffff168173ffffffffffffffffffffffffffffffffffffffff1614612644578382826040517f64283d7b00000000000000000000000000000000000000000000000000000000815260040161263b93929190613e99565b60405180910390fd5b50505050565b600073ffffffffffffffffffffffffffffffffffffffff168273ffffffffffffffffffffffffffffffffffffffff16036126bc5760006040517f64a0ae920000000000000000000000000000000000000000000000000000000081526004016126b3919061363a565b60405180910390fd5b60006126ca838360006122c3565b9050600073ffffffffffffffffffffffffffffffffffffffff168173ffffffffffffffffffffffffffffffffffffffff161461273e5760006040517f73c6ac6e000000000000000000000000000000000000000000000000000000008152600401612735919061363a565b60405180910390fd5b505050565b806006600084815260200190815260200160002090816127639190614502565b507ff8e1a15aba9398e019f0b49df1a4fde98ee17ae345cb5f6b5e2c27f5033e8ce78260405161279391906138d2565b60405180910390a15050565b600082116127e2576040517f08c379a00000000000000000000000000000000000000000000000000000000081526004016127d990614620565b60405180910390fd5b600a543414612826576040517f08c379a000000000000000000000000000000000000000000000000000000000815260040161281d90613fd4565b60405180910390fd5b6040518060c001604052808481526020013373ffffffffffffffffffffffffffffffffffffffff1681526020013073ffffffffffffffffffffffffffffffffffffffff1681526020018381526020016000151581526020018260028111156128915761289061372c565b5b815250600c60008581526020019081526020016000206000820151816000015560208201518160010160006101000a81548173ffffffffffffffffffffffffffffffffffffffff021916908373ffffffffffffffffffffffffffffffffffffffff16021790555060408201518160020160006101000a81548173ffffffffffffffffffffffffffffffffffffffff021916908373ffffffffffffffffffffffffffffffffffffffff1602179055506060820151816003015560808201518160040160006101000a81548160ff02191690831515021790555060a08201518160040160016101000a81548160ff021916908360028111156129945761299361372c565b5b02179055509050506129a73330856124dd565b827f40dd8a88cccb4ca2d46b3fe9d9f1ddd690902cb5883bef45e72ddc6509cb2ae13330856000866040516129e095949392919061464f565b60405180910390a2505050565b600073ffffffffffffffffffffffffffffffffffffffff168273ffffffffffffffffffffffffffffffffffffffff1603612a5e57816040517f5b08ba18000000000000000000000000000000000000000000000000000000008152600401612a55919061363a565b60405180910390fd5b80600560008573ffffffffffffffffffffffffffffffffffffffff1673ffffffffffffffffffffffffffffffffffffffff16815260200190815260200160002060008473ffffffffffffffffffffffffffffffffffffffff1673ffffffffffffffffffffffffffffffffffffffff16815260200190815260200160002060006101000a81548160ff0219169083151502179055508173ffffffffffffffffffffffffffffffffffffffff168373ffffffffffffffffffffffffffffffffffffffff167f17307eab39ab6107e8899845ad3d59bd9653f200f220920489ca2b5937696c3183604051612b4f91906134c9565b60405180910390a3505050565b60008373ffffffffffffffffffffffffffffffffffffffff163b1115612d06578273ffffffffffffffffffffffffffffffffffffffff1663150b7a02868685856040518563ffffffff1660e01b8152600401612bbb94939291906146f7565b6020604051808303816000875af1925050508015612bf757506040513d601f19601f82011682018060405250810190612bf49190614758565b60015b612c7b573d8060008114612c27576040519150601f19603f3d011682016040523d82523d6000602084013e612c2c565b606091505b506000815103612c7357836040517f64a0ae92000000000000000000000000000000000000000000000000000000008152600401612c6a919061363a565b60405180910390fd5b805181602001fd5b63150b7a0260e01b7bffffffffffffffffffffffffffffffffffffffffffffffffffffffff1916817bffffffffffffffffffffffffffffffffffffffffffffffffffffffff191614612d0457836040517f64a0ae92000000000000000000000000000000000000000000000000000000008152600401612cfb919061363a565b60405180910390fd5b505b5050505050565b606060405180602001604052806000815250905090565b6060612d2f826121e4565b506000612d3a612d0d565b90506000815111612d5a5760405180602001604052806000815250612d85565b80612d64846130bd565b604051602001612d7592919061429d565b6040516020818303038152906040525b915050919050565b60007f01ffc9a7000000000000000000000000000000000000000000000000000000007bffffffffffffffffffffffffffffffffffffffffffffffffffffffff1916827bffffffffffffffffffffffffffffffffffffffffffffffffffffffff1916149050919050565b60006002600083815260200190815260200160002060009054906101000a900473ffffffffffffffffffffffffffffffffffffffff169050919050565b8080612e6d5750600073ffffffffffffffffffffffffffffffffffffffff168273ffffffffffffffffffffffffffffffffffffffff1614155b15612fa1576000612e7d846121e4565b9050600073ffffffffffffffffffffffffffffffffffffffff168373ffffffffffffffffffffffffffffffffffffffff1614158015612ee857508273ffffffffffffffffffffffffffffffffffffffff168173ffffffffffffffffffffffffffffffffffffffff1614155b8015612efb5750612ef9818461206e565b155b15612f3d57826040517fa9fbf51f000000000000000000000000000000000000000000000000000000008152600401612f34919061363a565b60405180910390fd5b8115612f9f57838573ffffffffffffffffffffffffffffffffffffffff168273ffffffffffffffffffffffffffffffffffffffff167f8c5be1e5ebec7d5bd14f71427d1e84f3dd0314c0f7b2291e5b200ac8c7c3b92560405160405180910390a45b505b836004600085815260200190815260200160002060006101000a81548173ffffffffffffffffffffffffffffffffffffffff021916908373ffffffffffffffffffffffffffffffffffffffff16021790555050505050565b61300483838361318b565b6130b857600073ffffffffffffffffffffffffffffffffffffffff168373ffffffffffffffffffffffffffffffffffffffff160361307957806040517f7e27328900000000000000000000000000000000000000000000000000000000815260040161307091906138d2565b60405180910390fd5b81816040517f177e802f0000000000000000000000000000000000000000000000000000000081526004016130af92919061432d565b60405180910390fd5b505050565b6060600060016130cc8461324c565b01905060008167ffffffffffffffff8111156130eb576130ea613a09565b5b6040519080825280601f01601f19166020018201604052801561311d5781602001600182028036833780820191505090505b509050600082602001820190505b600115613180578080600190039150507f3031323334353637383961626364656600000000000000000000000000000000600a86061a8153600a858161317457613173614785565b5b0494506000850361312b575b819350505050919050565b60008073ffffffffffffffffffffffffffffffffffffffff168373ffffffffffffffffffffffffffffffffffffffff161415801561324357508273ffffffffffffffffffffffffffffffffffffffff168473ffffffffffffffffffffffffffffffffffffffff1614806132045750613203848461206e565b5b8061324257508273ffffffffffffffffffffffffffffffffffffffff1661322a8361226c565b73ffffffffffffffffffffffffffffffffffffffff16145b5b90509392505050565b600080600090507a184f03e93ff9f4daa797ed6e38ed64bf6a1f01000000000000000083106132aa577a184f03e93ff9f4daa797ed6e38ed64bf6a1f01000000000000000083816132a05761329f614785565b5b0492506040810190505b6d04ee2d6d415b85acef810000000083106132e7576d04ee2d6d415b85acef810000000083816132dd576132dc614785565b5b0492506020810190505b662386f26fc10000831061331657662386f26fc10000838161330c5761330b614785565b5b0492506010810190505b6305f5e100831061333f576305f5e100838161333557613334614785565b5b0492506008810190505b612710831061336457612710838161335a57613359614785565b5b0492506004810190505b60648310613387576064838161337d5761337c614785565b5b0492506002810190505b600a8310613396576001810190505b80915050919050565b6040518060c0016040528060008152602001600073ffffffffffffffffffffffffffffffffffffffff168152602001600073ffffffffffffffffffffffffffffffffffffffff168152602001600081526020016000151581526020016000600281111561340f5761340e61372c565b5b81525090565b6000604051905090565b600080fd5b600080fd5b60007fffffffff0000000000000000000000000000000000000000000000000000000082169050919050565b61345e81613429565b811461346957600080fd5b50565b60008135905061347b81613455565b92915050565b6000602082840312156134975761349661341f565b5b60006134a58482850161346c565b91505092915050565b60008115159050919050565b6134c3816134ae565b82525050565b60006020820190506134de60008301846134ba565b92915050565b600081519050919050565b600082825260208201905092915050565b60005b8381101561351e578082015181840152602081019050613503565b60008484015250505050565b6000601f19601f8301169050919050565b6000613546826134e4565b61355081856134ef565b9350613560818560208601613500565b6135698161352a565b840191505092915050565b6000602082019050818103600083015261358e818461353b565b905092915050565b6000819050919050565b6135a981613596565b81146135b457600080fd5b50565b6000813590506135c6816135a0565b92915050565b6000602082840312156135e2576135e161341f565b5b60006135f0848285016135b7565b91505092915050565b600073ffffffffffffffffffffffffffffffffffffffff82169050919050565b6000613624826135f9565b9050919050565b61363481613619565b82525050565b600060208201905061364f600083018461362b565b92915050565b61365e81613619565b811461366957600080fd5b50565b60008135905061367b81613655565b92915050565b600080604083850312156136985761369761341f565b5b60006136a68582860161366c565b92505060206136b7858286016135b7565b9150509250929050565b600081519050919050565b600082825260208201905092915050565b6000819050602082019050919050565b6136f681613596565b82525050565b6000613707826135f9565b9050919050565b613717816136fc565b82525050565b613726816134ae565b82525050565b7f4e487b7100000000000000000000000000000000000000000000000000000000600052602160045260246000fd5b6003811061376c5761376b61372c565b5b50565b600081905061377d8261375b565b919050565b600061378d8261376f565b9050919050565b61379d81613782565b82525050565b60c0820160008201516137b960008501826136ed565b5060208201516137cc602085018261370e565b5060408201516137df604085018261370e565b5060608201516137f260608501826136ed565b506080820151613805608085018261371d565b5060a082015161381860a0850182613794565b50505050565b600061382a83836137a3565b60c08301905092915050565b6000602082019050919050565b600061384e826136c1565b61385881856136cc565b9350613863836136dd565b8060005b8381101561389457815161387b888261381e565b975061388683613836565b925050600181019050613867565b5085935050505092915050565b600060208201905081810360008301526138bb8184613843565b905092915050565b6138cc81613596565b82525050565b60006020820190506138e760008301846138c3565b92915050565b600381106138fa57600080fd5b50565b60008135905061390c816138ed565b92915050565b6000602082840312156139285761392761341f565b5b6000613936848285016138fd565b91505092915050565b6000806000606084860312156139585761395761341f565b5b60006139668682870161366c565b93505060206139778682870161366c565b9250506040613988868287016135b7565b9150509250925092565b600080604083850312156139a9576139a861341f565b5b60006139b7858286016135b7565b92505060206139c8858286016135b7565b9150509250929050565b6000602082840312156139e8576139e761341f565b5b60006139f68482850161366c565b91505092915050565b600080fd5b600080fd5b7f4e487b7100000000000000000000000000000000000000000000000000000000600052604160045260246000fd5b613a418261352a565b810181811067ffffffffffffffff82111715613a6057613a5f613a09565b5b80604052505050565b6000613a73613415565b9050613a7f8282613a38565b919050565b600067ffffffffffffffff821115613a9f57613a9e613a09565b5b613aa88261352a565b9050602081019050919050565b82818337600083830152505050565b6000613ad7613ad284613a84565b613a69565b905082815260208101848484011115613af357613af2613a04565b5b613afe848285613ab5565b509392505050565b600082601f830112613b1b57613b1a6139ff565b5b8135613b2b848260208601613ac4565b91505092915050565b600080600060608486031215613b4d57613b4c61341f565b5b600084013567ffffffffffffffff811115613b6b57613b6a613424565b5b613b7786828701613b06565b9350506020613b88868287016135b7565b9250506040613b99868287016138fd565b9150509250925092565b613bac816134ae565b8114613bb757600080fd5b50565b600081359050613bc981613ba3565b92915050565b60008060408385031215613be657613be561341f565b5b6000613bf48582860161366c565b9250506020613c0585828601613bba565b9150509250929050565b600067ffffffffffffffff821115613c2a57613c29613a09565b5b613c338261352a565b9050602081019050919050565b6000613c53613c4e84613c0f565b613a69565b905082815260208101848484011115613c6f57613c6e613a04565b5b613c7a848285613ab5565b509392505050565b600082601f830112613c9757613c966139ff565b5b8135613ca7848260208601613c40565b91505092915050565b60008060008060808587031215613cca57613cc961341f565b5b6000613cd88782880161366c565b9450506020613ce98782880161366c565b9350506040613cfa878288016135b7565b925050606085013567ffffffffffffffff811115613d1b57613d1a613424565b5b613d2787828801613c82565b91505092959194509250565b60008060408385031215613d4a57613d4961341f565b5b6000613d588582860161366c565b9250506020613d698582860161366c565b9150509250929050565b7f4e487b7100000000000000000000000000000000000000000000000000000000600052602260045260246000fd5b60006002820490506001821680613dba57607f821691505b602082108103613dcd57613dcc613d73565b5b50919050565b7f4e487b7100000000000000000000000000000000000000000000000000000000600052601160045260246000fd5b6000613e0d82613596565b9150613e1883613596565b9250828203905081811115613e3057613e2f613dd3565b5b92915050565b6000613e4182613596565b9150613e4c83613596565b9250828201905080821115613e6457613e63613dd3565b5b92915050565b7f4e487b7100000000000000000000000000000000000000000000000000000000600052603260045260246000fd5b6000606082019050613eae600083018661362b565b613ebb60208301856138c3565b613ec8604083018461362b565b949350505050565b7f4f6e6c7920746865206f776e6572206f6620746865204e46542063616e20736560008201527f6c6c206974000000000000000000000000000000000000000000000000000000602082015250565b6000613f2c6025836134ef565b9150613f3782613ed0565b604082019050919050565b60006020820190508181036000830152613f5b81613f1f565b9050919050565b7f466565206d75737420626520657175616c20746f206c697374696e672070726960008201527f6365000000000000000000000000000000000000000000000000000000000000602082015250565b6000613fbe6022836134ef565b9150613fc982613f62565b604082019050919050565b60006020820190508181036000830152613fed81613fb1565b9050919050565b7f4e6f7420656e6f7567682045544820696e20796f75722077616c6c6574210000600082015250565b600061402a601e836134ef565b915061403582613ff4565b602082019050919050565b600060208201905081810360008301526140598161401d565b9050919050565b600061406b82613596565b91506000820361407e5761407d613dd3565b5b600182039050919050565b7f596f75206d75737420706179206d696e74696e67206665650000000000000000600082015250565b60006140bf6018836134ef565b91506140ca82614089565b602082019050919050565b600060208201905081810360008301526140ee816140b2565b9050919050565b600061410082613596565b91507fffffffffffffffffffffffffffffffffffffffffffffffffffffffffffffffff820361413257614131613dd3565b5b600182019050919050565b7f4f6e6c79206f776e6572206f6620746865204d61726b6574506c61636520636160008201527f6e206368616e676520746865206c697374696e67207072696365000000000000602082015250565b6000614199603a836134ef565b91506141a48261413d565b604082019050919050565b600060208201905081810360008301526141c88161418c565b9050919050565b7f54686520676976656e207072696365206973206e6f7420657175616c20746f2060008201527f746865207072696365206f6620746865204e4654000000000000000000000000602082015250565b600061422b6034836134ef565b9150614236826141cf565b604082019050919050565b6000602082019050818103600083015261425a8161421e565b9050919050565b600081905092915050565b6000614277826134e4565b6142818185614261565b9350614291818560208601613500565b80840191505092915050565b60006142a9828561426c565b91506142b5828461426c565b91508190509392505050565b7f4e465420646f6573742065786973740000000000000000000000000000000000600082015250565b60006142f7600f836134ef565b9150614302826142c1565b602082019050919050565b60006020820190508181036000830152614326816142ea565b9050919050565b6000604082019050614342600083018561362b565b61434f60208301846138c3565b9392505050565b60008190508160005260206000209050919050565b60006020601f8301049050919050565b600082821b905092915050565b6000600883026143b87fffffffffffffffffffffffffffffffffffffffffffffffffffffffffffffffff8261437b565b6143c2868361437b565b95508019841693508086168417925050509392505050565b6000819050919050565b60006143ff6143fa6143f584613596565b6143da565b613596565b9050919050565b6000819050919050565b614419836143e4565b61442d61442582614406565b848454614388565b825550505050565b600090565b614442614435565b61444d818484614410565b505050565b5b818110156144715761446660008261443a565b600181019050614453565b5050565b601f8211156144b65761448781614356565b6144908461436b565b8101602085101561449f578190505b6144b36144ab8561436b565b830182614452565b50505b505050565b600082821c905092915050565b60006144d9600019846008026144bb565b1980831691505092915050565b60006144f283836144c8565b9150826002028217905092915050565b61450b826134e4565b67ffffffffffffffff81111561452457614523613a09565b5b61452e8254613da2565b614539828285614475565b600060209050601f83116001811461456c576000841561455a578287015190505b61456485826144e6565b8655506145cc565b601f19841661457a86614356565b60005b828110156145a25784890151825560018201915060208501945060208101905061457d565b868310156145bf57848901516145bb601f8916826144c8565b8355505b6001600288020188555050505b505050505050565b7f50726963652063616e6e6f74206265207a65726f000000000000000000000000600082015250565b600061460a6014836134ef565b9150614615826145d4565b602082019050919050565b60006020820190508181036000830152614639816145fd565b9050919050565b61464981613782565b82525050565b600060a082019050614664600083018861362b565b614671602083018761362b565b61467e60408301866138c3565b61468b60608301856134ba565b6146986080830184614640565b9695505050505050565b600081519050919050565b600082825260208201905092915050565b60006146c9826146a2565b6146d381856146ad565b93506146e3818560208601613500565b6146ec8161352a565b840191505092915050565b600060808201905061470c600083018761362b565b614719602083018661362b565b61472660408301856138c3565b818103606083015261473881846146be565b905095945050505050565b60008151905061475281613455565b92915050565b60006020828403121561476e5761476d61341f565b5b600061477c84828501614743565b91505092915050565b7f4e487b7100000000000000000000000000000000000000000000000000000000600052601260045260246000fdfea26469706673582212208210591077921e2b0cc85ff4459ce0871f827cc222d95c2cb1c8a96bd58b99a864736f6c634300081c0033",
  "linkReferences": {},
  "deployedLinkReferences": {}
}